:100000000C943B020C9464020C9464020C94640201
:100010000C9464020C9464020C9464020C946402C8
:100020000C9464020C9464020C949C170C94D417E6
:100030000C9464020C9464020C9464020C946402A8
:100040000C9464020C9464020C9464020C94640298
:100050000C9464020C9464020C9464020C94890263
:100060000C9464020C9464020C9464020C94640278
:100070000C9464020C9464020C9464020C94640268
:100080000C9464020C9464020C9464020C94660256
:100090000C9464020C9464020C9464020C94640248
:1000A0000C9464020C9464020C94640205A84CCD78
:1000B000B2D44EB93836A9020C50B9918688083CA2
:1000C000A6AAAA2ABE000000803F6E616E00696E7B
:1000D000660000407A10F35A00A0724E1809001012
:1000E000A5D4E80000E87648170000E40B540200AD
:1000F00000CA9A3B000000E1F505000080969800D8
:10010000000040420F000000A08601000000102700
:1001100000000000E8030000000064000000000090
:100120000A00000000000100000000002C76D888C2
:10013000DC674F0823DFC1DFAE59E1B1B796E5E3D5
:10014000E453C63AE651997696E8E6C28426EB89EE
:100150008C9B62ED407C6FFCEFBC9C9F40F2BAA58B
:100160006FA5F490055A2AF75C936B6CF9676DC123
:100170001BFCE0E40D47FEF520E6B500D0ED902E27
:100180000300943577050080841E080000204E0A85
:10019000000000C80C333333330F986E12831141C3
:1001A000EF8D2114893BE65516CFFEE6DB18D1848E
:1001B0004B381BF77C1D901DA4BBE42420328472B5
:1001C0005E228100C9F124ECA1E53D270001000079
:1001D00079021200020000360243000300003202DE
:1001E00004010309041C0214020309040402160397
:1001F000030904F6010C0C03310032003300340013
:100200003500000016035500530042002000530043
:1002100065007200690061006C0000001403590061
:100220006F007500720020004E0061006D006500D7
:1002300000000403090409024300020100C032095E
:100240000400000102020100052400100105240140
:10025000010104240206052406000107058203109B
:10026000004009040100020A0000000705030240E3
:100270000000070584024000001201000202000095
:1002800010C0167A040001010203010001C112012D
:100290008036018136000000000000005F00000091
:1002A00007000700147F147F14242A7F2A122313C7
:1002B00008646236495522500005030000001C22E4
:1002C00041000041221C0014083E081408083E08A2
:1002D00008005030000008080808080060600000AE
:1002E00020100804023E5149453E00427F40004232
:1002F000615149462141454B311814127F10274561
:100300004545393C4A494930017109050336494997
:100310004936064949291E00363600000056360087
:10032000000814224100141414141400412214086B
:100330000201510906324979413E7E1111117E7F39
:10034000494949363E414141227F4141221C7F4972
:100350004949417F090909013E4149497A7F080815
:10036000087F00417F41002040413F017F08142267
:10037000417F404040407F020C027F7F0408107F95
:100380003E4141413E7F090909063E4151215E7FC0
:1003900009192946464949493101017F01013F4078
:1003A00040403F1F2040201F3F4038403F6314081B
:1003B000146307087008076151494543007F4141B4
:1003C0000002040810200041417F000402010204E1
:1003D0004040404040000102040020545454787FC3
:1003E000484444383844444420384444487F3854CE
:1003F000545418087E0901020C5252523E7F0804E0
:10040000047800447D40002040443D007F10284493
:100410000000417F40007C041804787C08040478C4
:1004200038444444387C14141408081414187C7C90
:10043000080404084854545420043F4440203C40DD
:1004400040207C1C2040201C3C4030403C44281074
:1004500028440C5050503C4464544C4400083641ED
:100460000000007F00000041360800100808100856
:1004700078464146780011241FBECFEFDAE0DEBF98
:10048000CDBF14BE0FB6F894A89580916000886126
:1004900080936000109260000FBE12E0A0E0B1E017
:1004A000E2EDFAE402C005900D92A037B107D9F74A
:1004B00027E0A0E7B2E001C01D92A534B207E1F742
:1004C0000E94C5140C940F250C9400001F921FB6B7
:1004D0001F9211248F939F93AF93BF9380917402C7
:1004E00090917502A0917602B09177020196A11DBC
:1004F000B11D8093740290937502A0937602B0931D
:100500007702BF91AF919F918F911F901FBE1F9057
:1005100018951F920F920FB60F9211240F931F93ED
:100520002F933F934F935F936F937F938F939F93FB
:10053000AF93BF93EF93FF93CF93DF93CDB7DEB726
:100540002697DEBFCDBF2DEB37E346E05CE360913D
:1005500070027091710280917202909173020E94F8
:10056000141F8B018E839D8320E030E040E85FE321
:1005700069831A838B839C8369817A818B819C81B7
:100580000E94232187FF26C0A8016E817D814093B0
:1005900070025093710260937202709373022696F8
:1005A0000FB6F894DEBF0FBECDBFDF91CF91FF91A4
:1005B000EF91BF91AF919F918F917F916F915F91DB
:1005C0004F913F912F911F910F910F900FBE0F9060
:1005D0001F90189510927002109271021092720280
:1005E000109273028BB190E489278BB9D8CFCF9347
:1005F00080E880936100C1E0C09361008FE30E94B6
:100600007D1B869885985198219850982798209816
:100610000E9424191092900084E080939100C0936E
:10062000710085B5846085BDC0936E0078940E948A
:10063000DA140E94F3148823E1F3CF910895CF9345
:10064000DF9300D000D0CDB7DEB70E9428199C01FF
:1006500050E040E029833A834B835C83CA01B901AF
:100660000E94322020E030EC4FE754E469837A8323
:100670008B839C8369817A818B819C810E948A1FF4
:1006800069837A838B839C8369817A818B819C8146
:100690000F900F900F900F90DF91CF910895DC0194
:1006A0000D900020E9F71197BD01681B790B0C94A0
:1006B000A715EF92FF920F931F93CF93DF9300D074
:1006C00000D000D0CDB7DEB7E0909400F090950058
:1006D0006091740270917502809176029091770218
:1006E0000E94322020E030E040E857E469837A83BA
:1006F0008B839C8369817A818B819C810E942821D4
:100700008B018E839D83C701B0E0A0E089839A832B
:10071000AB83BC83B701CD010E9432209B01AC01A9
:1007200009831A839E819B83AD81AC8369817A8121
:100730008B819C810E94141F20E030E040E853E44C
:1007400069837A838B839C8369817A818B819C8185
:100750000E94282120E034E244EF5AE469837A833E
:100760008B839C8369817A818B819C810E948A1F03
:1007700069837A838B839C8369817A818B819C8155
:1007800026960FB6F894DEBF0FBECDBFDF91CF9196
:100790001F910F91FF90EF900895CF93DF9300D0BA
:1007A00000D0CDB7DEB780917E02811123C00E94B8
:1007B000590369837A838B839C8369817A818B81D6
:1007C0009C810E940320CB017093300460932F041E
:1007D0002091B3043091B404821B930B9093E204F4
:1007E0008093E1046CE370E00E943F228093E00478
:1007F00060934C050F900F900F900F90DF91CF9169
:1008000008958F929F92AF92BF92CF92DF92EF9214
:10081000FF920F931F93CF93DF93CDB7DEB72A9745
:100820000FB6F894DEBF0FBECDBF89879A87A98522
:10083000BA858C91882309F47AC011962D913D9147
:100840004D915C91149729833A834B835C8320E01C
:1008500030E048EA52E469817A818B819C810E9470
:10086000232187FF64C0E985FA858389E82EF12C6E
:10087000282F30E050E040E02D833E834F8358879F
:10088000CA01B9010E94342029813A814B815C81DF
:1008900069837A838B839C8369817A818B819C8134
:1008A0000E94141F20E030E0A90169837A838B83C2
:1008B0009C8369817A818B819C810E94801F18169C
:1008C000B4F5A985BA8515968D919D910D90BC9131
:1008D000A02D89839A83AB83BC8320E030E040E481
:1008E00052E4BC01CD010E94232187FF20C020E0FB
:1008F00030E040E051E469817A818B819C810E94E3
:10090000801F1816A4F4B7E0EB0EF11C33E0F59449
:10091000E7943A95E1F7B12CA12CD12CC12CE985B3
:10092000FA8584898C151D0411F008F091C02A966F
:100930000FB6F894DEBF0FBECDBFDF91CF911F91F0
:100940000F91FF90EF90DF90CF90BF90AF909F906E
:100950008F900895A985BA855196ED91FC91EA0D85
:10096000FB1DC80123E0969587952A95E1F7E80FCE
:10097000F91F808190E098012095309527703327EA
:1009800002C0959587952A95E2F780FF50C06D814A
:100990007E818F8198850E943220E985FA852581A4
:1009A00036814781508569837A838B839C836981F3
:1009B0007A818B819C810E94141F69837A838B8347
:1009C0009C8369817A818B819C810E94FC1F4B01F1
:1009D000980150E040E029833A834B835C83CA014D
:1009E000B8010E943220A985BA8511962D913D91BA
:1009F0004D915C91149769837A838B839C83698181
:100A00007A818B819C810E94141F69837A838B83F6
:100A10009C8369817A818B819C810E94FC1F362F87
:100A2000272F41E0B401832F922F0E9459190F5FA5
:100A30001F4FA985BA8553968C918017110611F026
:100A400008F088CFBFEFCB1ADB0AAE0CBF1C67CF14
:100A500010E000E0960150E040E02D833E834F839C
:100A60005887E7CF9C01CB01AB0149505109473270
:100A70005105A0F42435310588F443E09595879518
:100A80004A95E1F744E5489FF001499FF00D112494
:100A9000E35BFA4FE20FF31F8081089581E0089530
:100AA0008F929F92AF92BF92CF92DF92EF92FF927E
:100AB0000F931F93CF93DF938C017A01EB01FA011F
:100AC000C488C60ED72ED11CCC16DD0670F481E08A
:100AD000DF91CF911F910F91FF90EF90DF90CF901A
:100AE000BF90AF909F908F9008954801F701A38821
:100AF000A00EB12EB11CA814B90410F42196E4CFB5
:100B0000BE01C4010E943205811104C0FFEF8F1A9B
:100B10009F0AF1CF80E0DCCF0F931F93CF93DF9339
:100B200000D000D000D0CDB7DEB780917E02811119
:100B30001AC08091E1049091E20490933204809372
:100B4000310481E090917E02911180E080937E02D9
:100B500026960FB6F894DEBF0FBECDBFDF91CF91C2
:100B60001F910F9108950E9459038B018E839D83DD
:100B700080913104909132049C0150E040E029833F
:100B80003A834B835C83CA01B9010E9432209B01E6
:100B9000AC0109831A838E818B838D818C8369815B
:100BA0007A818B819C810E94131F69837A838B8356
:100BB0009C8369817A818B819C810E940320709340
:100BC000B4046093B304BDCF282F7E9915C08FB1B4
:100BD00085FB992790F985FD0BC049990FC01F9996
:100BE0000FC019990FC048990FC0189B0FC096E00D
:100BF00081E0921380E0089590E0FACF94E0F8CF7E
:100C000095E0F6CF92E0F4CF93E0F2CF9FEFF0CFF4
:100C1000CF93C82F8C2F0E94E4058111FBCFCF9179
:100C20000895FF920F931F93CF93DF9300D000D0CE
:100C300000D0CDB7DEB78D830E945903F62E072F63
:100C4000182F9E830E94F0229C01990F440B550B94
:100C500029833A834B835C83CA01B9010E94342003
:100C60002F2D302F412F5E8169837A838B839C8364
:100C700069817A818B819C810E94282169837A8392
:100C80008B839C8369817A818B819C810E94032064
:100C9000CB010E94F5220E94F0229C01990F440B87
:100CA000550B29833A834B835C83CA01B9010E94A7
:100CB000342020E03EEF4FEF56E469837A838B8344
:100CC0009C8369817A818B819C810E948A1FF62E88
:100CD000072F182F9E839D81892F90E0B0E0A0E020
:100CE00089839A83AB83BC83BC01CD010E943420ED
:100CF0009B01AC01F9820A831B83AE81AC836981BD
:100D00007A818B819C810E94282169837A838B83DD
:100D10009C8369817A818B819C8126960FB6F89499
:100D2000DEBF0FBECDBFDF91CF911F910F91FF901E
:100D300008958F929F92AF92BF92CF92DF92EF92DF
:100D4000FF920F931F93CF93DF93CDB7DEB72A9710
:100D50000FB6F894DEBF0FBECDBF89879A878B018F
:100D6000A985BA858C91882309F4CCC0FB018081C8
:100D7000882309F4C7C011962D913D914D915C9146
:100D800014972D833E834F83588753968C91282F39
:100D900030E050E040E029833A834B835C83CA0112
:100DA000B9010E9434206B017C01D80111968D900D
:100DB0009D90AD90BC9014979B01AC016D817E819C
:100DC0008F8198850E94141FA501940169837A83FD
:100DD0008B839C8369817A818B819C810E942321F2
:100DE00087FD90C0A5019401C982DA82EB82FC8262
:100DF00069817A818B819C810E94141F9B01AC01C7
:100E00006D817E818F8198850E94801F18160CF459
:100E100079C0A985BA8515962D913D914D915C912A
:100E200018972D833E834F835887F801C580D6805D
:100E3000E780F08454968C91282F30E050E040E019
:100E400029833A834B835C83CA01B9010E94342011
:100E50002D813E814F81588569837A838B839C8362
:100E600069817A818B819C810E94141FA701960160
:100E700069837A838B839C8369817A818B819C814E
:100E80000E94232187FD3EC0D80154968C91282FC3
:100E900030E050E040E029833A834B835C83CA0111
:100EA000B9010E943420A701960169837A838B835C
:100EB0009C8369817A818B819C810E94141F31E01F
:100EC000398719829B01AC016D817E818F81988564
:100ED0000E94801F18160CF41986898599812A961C
:100EE0000FB6F894DEBF0FBECDBFDF91CF911F913B
:100EF0000F91FF90EF90DF90CF90BF90AF909F90B9
:100F00008F90089580E090E0EACFCF93DF93CDB744
:100F1000DEB728970FB6F894DEBF0FBECDBF209185
:100F2000CC043091CD044091CE045091CF0429835C
:100F30003A834B835C83809101019091DE04891B8D
:100F4000990B9C01990F440B550B2D833E834F83C6
:100F50005887CA01B9010E9434209B01AC01698104
:100F60007A818B819C810E94232187FD52C010923F
:100F70002E0420E030E040E85FE369817A818B81D4
:100F80009C810E94801F18160CF447C01092CA045E
:100F90008091D0049091D104A091D204B091D30457
:100FA00089839A83AB83BC83809100019091DF0495
:100FB000891B990B9C01990F440B550B2D833E8384
:100FC0004F835887CA01B9010E9434209B01AC01AC
:100FD00069817A818B819C810E94232187FD21C0B8
:100FE0001092B20420E030E040E251E469817A815D
:100FF0008B819C810E94801F87FF17C01092B104D3
:1010000028960FB6F894DEBF0FBECDBFDF91CF910B
:10101000089581E080932E04ACCF81E08093CA04D0
:10102000B7CF81E08093B204DDCF81E08093B1043B
:10103000E7CFDF92EF92FF920F931F93CF93DF934F
:10104000CDB7DEB72A970FB6F894DEBF0FBECDBF7F
:101050000091010110E0E0900001F12CD0907802A5
:101060002AE832E03A872987A985BA858C918823B6
:1010700009F469C011962D913D914D915C911497A1
:1010800029833A834B835C8353968C91F801E81B48
:10109000F1099F01FF0F440B550B2D833E834F83B6
:1010A0005887CA01B9010E9434209B01AC016981B3
:1010B0007A818B819C810E94232187FF40C020E0A0
:1010C00030E040E85FE369817A818B819C810E94F6
:1010D000801F1816A4F5A985BA8515968D919D9146
:1010E0000D90BC91A02D89839A83AB83BC83E98545
:1010F000FA8584899701281B3109032E000C440BC3
:10110000550B2D833E834F835887CA01B9010E9436
:1011100034209B01AC0169817A818B819C810E9482
:10112000232187FF0CC020E030E040E251E46981D8
:101130007A818B819C810E94801F87FF04C0A985D2
:10114000BA851C92DA94E985FA857596FA87E9875B
:10115000EE52F44009F088CFD09278022A960FB66A
:10116000F894DEBF0FBECDBFDF91CF911F910F91DD
:10117000FF90EF90DF9008950895CF93DF93C3EE33
:10118000D4E0BE018BEC94E00E949906892B59F0C3
:101190001882809180028F5F8093800280917C0210
:1011A000815080937C02659685E0CC34D80749F75E
:1011B000DF91CF910895CF93DF93C8E4D4E0BE01CF
:1011C0008BEC94E00E949906892B59F0188280914B
:1011D000340181508093340180917A028150809350
:1011E0007A02659684E0C13BD80749F7DF91CF9139
:1011F000089565EB74E08BEC94E00E949906892BCE
:1012000029F0809136018F5F80933601089581E047
:101210000E94E405882329F081E00E9408060C94CE
:101220008C05089580E00E94E405882341F080E069
:101230000E940806809136018F5F809336010895E1
:101240000F931F93CF93DF9300D000D000D0CDB782
:10125000DEB780E00E941F038B018E839D83809107
:101260007E0281115BC020913C0430913D0440918D
:101270003E0450913F0409831A838E818B839C83A3
:1012800069817A818B819C810E942821209134047C
:1012900030913504409136045091370469837A8344
:1012A0008B839C8369817A818B819C810E94141F2E
:1012B000609334047093350480933604909337041C
:1012C00020914004309141044091420450914304E4
:1012D00009831A839E819B83AD81AC8369817A8166
:1012E0008B819C810E9428212091380430913904FF
:1012F00040913A0450913B0469837A838B839C83A9
:1013000069817A818B819C810E94141F60933804CB
:101310007093390480933A0490933B0426960FB659
:10132000F894DEBF0FBECDBFDF91CF911F910F911B
:1013300008956F927F928F929F92AF92BF92CF92B9
:10134000DF92EF92FF920F931F93CF93DF93CDB76E
:10135000DEB764970FB6F894DEBF0FBECDBF8C0129
:101360007B010E9459036B0189879D830E94F022B3
:101370009C01990F440B550B29833A834B835C8363
:10138000CA01B9010E943420960149855D816983B3
:101390007A838B839C8369817A818B819C810E9473
:1013A000282169837A838B839C8369817A818B81ED
:1013B0009C810E940320CB010E94F52281E00E94C3
:1013C0001106462F572FBC0140934004509341040F
:1013D000609342047093430440933C0450933D0453
:1013E00060933E0470933F040E94F022B7010E9474
:1013F0003F22080F191FC801110FAA0BBB0B8983CD
:101400009A83AB83BC83BC01CD010E9434202BEDB9
:101410003FE049E450E469837A838B839C8369814C
:101420007A818B819C810E94282120E030E044E376
:1014300053E469837A838B839C8369817A818B816E
:101440009C810E948A1F5B018C016983BA828B8315
:101450001C8369817A818B819C810E9495216B011B
:101460007C0169817A818B819C810E94851F5B014F
:101470008C0120913C0430913D0440913E045091F8
:101480003F042D833E834F83588780914004909181
:101490004104A0914204B091430489879A87AB87A5
:1014A000BC879501A8016D817E818F8198850E94FE
:1014B00028213B014C01A701960169857A858B851E
:1014C0009C850E9428219B01AC0169827A828B82D3
:1014D0009C8269817A818B819C810E94141F6D8717
:1014E0007E878F87988B60933C0470933D04809334
:1014F0003E0490933F04A7019601505829833A83F4
:101500004B835C832D813E814F81588569817A812F
:101510008B819C810E9428216B017C019501A8018F
:1015200069857A858B859C850E9428219B01AC0169
:10153000C982DA82EB82FC8269817A818B819C810B
:101540000E94141F609340047093410480934204EE
:101550009093430464960FB6F894DEBF0FBECDBFE0
:10156000DF91CF911F910F91FF90EF90DF90CF907F
:10157000BF90AF909F908F907F906F900895CF9382
:10158000DF93CDB7DEB728970FB6F894DEBF0FBE56
:10159000CDBF2091340430913504409136045091F0
:1015A000370429833A834B835C83809101019091B6
:1015B0004604891B990B9C01990F440B550B2D83F5
:1015C0003E834F835887CA01B9010E9434209B0192
:1015D000AC0169817A818B819C810E94232187FDE6
:1015E0000EC060EF70E088E790E028960FB6F894A0
:1015F000DEBF0FBECDBFDF91CF910C94990920E0E3
:1016000030E040E85FE369817A818B819C810E94B0
:10161000801F18162CF06CE370E084EC9FEFE5CF90
:101620008091380490913904A0913A04B0913B0420
:1016300089839A83AB83BC83809100019091470496
:10164000891B990B9C01990F440B550B2D833E83ED
:101650004F835887CA01B9010E9434209B01AC0115
:1016600069817A818B819C810E94232187FD05C03D
:1016700066E970E08EE190E0B8CF20E030E040E233
:1016800051E469817A818B819C810E94801F1816A8
:101690002CF06AE471E082ED90E0A7CF28960FB6B7
:1016A000F894DEBF0FBECDBFDF91CF9108950E94A9
:1016B00085070E94BF0A0C9419086F927F928F923F
:1016C0009F92AF92BF92CF92DF92EF92FF920F93D1
:1016D0001F93CF93DF93CDB7DEB76E970FB6F89415
:1016E000DEBF0FBECDBF80917802882309F42AC1E6
:1016F00020913404309135044091360450913704E0
:101700002D873E874F87588B8091380490913904FC
:10171000A0913A04B0913B04898B9A8BAB8BBC8B24
:10172000AAE8B2E0BE8BAD8BED89FE89808188236B
:1017300009F4FEC021813281438154812D833E838F
:101740004F8358876D857E858F8598890E94131FEA
:1017500069837A838B839C8369817A818B819C8165
:101760000E94FC1F4B01AD89BE8915962D913D91BC
:101770004D915C91189729873A874B875C876989D7
:101780007A898B899C890E94131F69837A838B8352
:101790009C8369817A818B819C810E94FC1F6B01F3
:1017A000889CC001899C900D900D1124CC9C9001C7
:1017B000CD9C300D300D1124820F931F9C01990F89
:1017C000440B550B29833A834B835C83CA01B901CF
:1017D0000E94342069837A838B839C8369817A8118
:1017E0008B819C810E94A32169837A838B839C8354
:1017F00069817A818B819C810E94FC1F69837A8335
:101800008B839C8389819A81092E000CAA0BBB0BC8
:1018100089839A83AB83BC83BC01CD010E943420B1
:101820003B018C019401990C440B550B29833A839D
:101830004B835C83CA01B9010E94342020E030E070
:1018400040E05FE369837A838B839C8369817A813B
:101850008B819C810E9428219301A80169837A834E
:101860008B839C8369817A818B819C810E948A1FF2
:101870004B015C01CB01D501ED89FE8981879287FF
:10188000A387B4879601DD0C440B550B29833A835B
:101890004B835C83CA01B9010E94342020E030E010
:1018A00040E05FE369837A838B839C8369817A81DB
:1018B0008B819C810E9428219301A80169837A83EE
:1018C0008B839C8369817A818B819C810E948A1F92
:1018D0006B017C01CB01D701ED89FE898587968755
:1018E000A787B08B9401A5016D817E818F8198853A
:1018F0000E94141F6F8B788F898F9A8FAD89BE8954
:1019000011966D937D938D939C9314979601A701E7
:1019100069857A858B859C850E94141F6B8F7C8FCF
:101920008D8F9E8FED89FE8965837683878390876F
:101930002D893E892B5E3F4F3E8B2D8B2E5234409E
:1019400009F0F2CE6E960FB6F894DEBF0FBECDBF93
:10195000DF91CF911F910F91FF90EF90DF90CF908B
:10196000BF90AF909F908F907F906F900895CF928F
:10197000DF92EF92FF920F931F93CF93DF9300D0EC
:1019800000D000D00F92CDB7DEB70E9459038B0173
:101990008F839D830E94F0229C01990F440B550B6D
:1019A00029833A834B835C83CA01B9010E943420A6
:1019B00098014F815D8169837A838B839C836981E0
:1019C0007A818B819C810E94282169837A838B8311
:1019D0009C8369817A818B819C810E940320CB0149
:1019E0000E94F52280917C02863008F074C08091BC
:1019F000E00480FD88C0882309F485C080917D02C1
:101A0000882309F468C0E3EEF4E0F12CE12C808136
:101A1000811170C025E12E9DC0012F9D900D1124D4
:101A2000AC014D515B4F6A010E94F02260910101AF
:101A300070E00E943F228C010F5F1F4F0E94F02236
:101A40006091000170E00E943F22DC011896BE8385
:101A5000AD83A601BD01C8010E945005882321F372
:101A600025E12E9DC0012F9D900D1124FC01ED510B
:101A7000FB4F7F019801110F440B550B29833A83CB
:101A80004B835C83CA01B9010E943420D7011196AF
:101A90006D937D938D939C9314972D813E81032E9E
:101AA000000C440B550B29833A834B835C83CA019A
:101AB000B9010E943420D70115966D937D938D93C3
:101AC0009C93189781E08C9380917C028F5F809328
:101AD0007C0210927D0227960FB6F894DEBF0FBEEF
:101AE000CDBFDF91CF911F910F91FF90EF90DF90CD
:101AF000CF900895BFEFEB1AFB0A759625E0E2162A
:101B0000F10449F384CF81E080937D02E4CF0F9309
:101B10001F93CF93DF93CDB7DEB72E970FB6F89410
:101B2000DEBF0FBECDBF0E9459038B018E879D8300
:101B30000E94F0229C01990F440B550B29833A8394
:101B40004B835C83CA01B9010E94342098014E8501
:101B50005D8169837A838B839C8369817A818B81A0
:101B60009C810E94282169837A838B839C8369816D
:101B70007A818B819C810E940320CB010E94F522F7
:101B800080917A02863008F053C02091E004822FC1
:101B900063E00E94332291115CC0222309F459C0F2
:101BA00080917B02882309F443C0E8E4F4E090E0EC
:101BB00080E02081211147C025E1289FA001299FB5
:101BC000500D1124485B5B4F5A83498320E030E07D
:101BD00040E450E4609134047091350480913604FF
:101BE000909137040E94141F6E837F8388879987A2
:101BF000A981BA8111966D937D938D939C931497CF
:101C000020E030E040E050E4609138047091390405
:101C100080913A0490913B040E94141FE981FA815B
:101C2000658376838783908781E0808310927B022F
:101C30002E960FB6F894DEBF0FBECDBFDF91CF91C9
:101C40001F910F910895019675968530910581F346
:101C5000B0CF81E080937B02EBCF0F931F93CF93A4
:101C6000DF9300D000D000D0CDB7DEB70E9459037B
:101C70008B018E839D830E94F0229C01990F440B5F
:101C8000550B29833A834B835C83CA01B9010E94B7
:101C9000342098014E815D8169837A838B839C8394
:101CA00069817A818B819C810E94282169837A8352
:101CB0008B839C8369817A818B819C810E94032024
:101CC000CB010E94F52280918002853008F452C039
:101CD0008091790281114EC00E94F0226091010131
:101CE00070E00E943F22AC014F5F5F4F5A834983EF
:101CF0000E94F0226091000170E00E943F228C015E
:101D0000085F1F4F45EB54E0B80189819A810E941A
:101D10005005882309F389819A81092E000CAA0BAA
:101D2000BB0B89839A83AB83BC83BC01CD010E942A
:101D300034206093B6047093B7048093B8049093F2
:101D4000B9049801110F440B550B29833A834B8337
:101D50005C83CA01B9010E9434206093BA04709375
:101D6000BB048093BC049093BD0481E08093B504D0
:101D70008093790226960FB6F894DEBF0FBECDBFD2
:101D8000DF91CF911F910F91089580918002833050
:101D900098F1EAE8F2E08081811129C08091CC04B9
:101DA0009091CD04A091CE04B091CF0480938B028A
:101DB00090938C02A0938D02B0938E028091D004F8
:101DC0009091D104A091D204B091D30480938F025A
:101DD00090939002A0939102B093920281E080933D
:101DE0008A02809178028F5F8093780208957596B9
:101DF00084E0EE32F80779F60895CF93DF9300D0B0
:101E000000D0CDB7DEB780E00E941F039B01AC017C
:101E100069837A838B839C8369817A818B819C819E
:101E20000E94141F462F572FBC014093D804509393
:101E3000D9046093DA047093DB044093D404509384
:101E4000D5046093D6047093D70484E00E94E4051F
:101E5000882329F18091B1048823D1F02091D804FE
:101E60003091D9044091DA045091DB046091D004A0
:101E70007091D1048091D2049091D3040E94131FD9
:101E80006093D0047093D1048093D2049093D304D0
:101E90000F900F900F900F90DF91CF91089585E0F4
:101EA0000E94E4058823B9F08091B204882381F36D
:101EB0002091D8043091D9044091DA045091DB0488
:101EC0006091D0047091D1048091D2049091D30498
:101ED0000E94141FD5CF82E00E94E4058823F9F008
:101EE0008091CA048823A1F22091D4043091D504B2
:101EF0004091D6045091D7046091CC047091CD04E8
:101F00008091CE049091CF040E94131F6093CC0463
:101F10007093CD048093CE049093CF04B9CF83E027
:101F20000E94E4058823C1F080912E04882309F4DF
:101F3000AFCF2091D4043091D5044091D604509174
:101F4000D7046091CC047091CD048091CE0490911F
:101F5000CF040E94141FDACF86E00E94E405882394
:101F600009F496CF86E00E9408060F900F900F901C
:101F70000F90DF91CF910C94C50EEBECF4E0118241
:101F800012821382148280E090E0A0E1B1E48583A4
:101F90009683A783B0870895E3E3F4E080E090E0C0
:101FA000AEE9B2E481839283A383B48380E090E0BE
:101FB000ACE1B2E485839683A783B0870895CF937D
:101FC000DF93CAE8D2E08881882379F063E374E084
:101FD000CE010E949906892B41F0809180028F5F8B
:101FE0008093800218820E94CC0F659684E0CE32E6
:101FF000D80749F7DF91CF9108956BEC74E083E344
:1020000094E00E949906892B49F080913401815017
:10201000809334010E94BD0F0C94CC0F089580E092
:1020200090E0AEE9B2E48093340490933504A09339
:102030003604B093370480E090E0ACE1B2E48093E2
:10204000380490933904A0933A04B0933B0480E0A1
:1020500090E0A0E8BFE380933C0490933D04A093FC
:102060003E04B0933F041092400410924104109239
:102070004204109243048AE291E0909345048093D5
:10208000440486E08093460495E09093470421E061
:10209000209333041092CC041092CD041092CE04FD
:1020A0001092CF0440E050E060E171E44093D0042E
:1020B0005093D1046093D2047093D30440E050E075
:1020C00060E070E44093D8045093D9046093DA043C
:1020D0007093DB044093D4045093D5046093D604EA
:1020E0007093D70442E251E05093DD044093DC0446
:1020F0008093DE049093DF042093CB042AE031E048
:102100003093C7042093C6049093C9048093C804F5
:10211000E3EEF4E02AE131E096E085E0328B218BBA
:102120001082938B848B759645E0EC34F407B1F7FD
:10213000E8E4F4E022E131E093E086E0328B218BA9
:102140001082938B848B759644E0E13BF407B1F7E2
:10215000EAE8F2E022E031E085E0328B218B108268
:10216000838B848B759694E0EE32F907B1F708956E
:10217000CF93DF938BEC94E00E94010483E394E01F
:102180000E94010485EB94E00E94010483EE94E038
:102190000E94010488EF94E00E9401048DE095E024
:1021A0000E94010482E295E00E94010487E395E029
:1021B0000E94010488E494E00E9401048DE594E00B
:1021C0000E94010482E794E00E94010487E894E001
:1021D0000E9401048CE994E00E940104CAE8D2E064
:1021E000CE010E940104659684E0CE32D807C1F783
:1021F000DF91CF9108950F9301E029E130E04DE0A8
:1022000050E06FE070E082E190E00E9481192DE2E1
:1022100030E049E150E063E270E087E190E00E9445
:1022200081192AE030E04CE350E06AE070E08DE292
:1022300090E00E9481192EE130E048E450E069E12D
:1022400070E08AE390E00E9481190F9108950F9346
:102250001F93CF93DF93CDB7DEB7EC970FB6F8940B
:10226000DEBF0FBECDBF0E94CD034091010150E003
:102270000DE228E030E068E070E090E080E00E944D
:1022800081198091E0041F928F9380914C051F92D9
:102290008F93809180021F928F93809134011F92BF
:1022A0008F93809136011F928F9382E491E09F93E8
:1022B0008F931F928CE38F938E010F5F1F4F1F939D
:1022C0000F930E941E2421E0A80170E060E090E0DE
:1022D00080E00E94361B0FB6F894DEBF0FBECDBF64
:1022E000EC960FB6F894DEBF0FBECDBFDF91CF9155
:1022F0001F910F910895CF93DF9300D000D0CDB7F9
:10230000DEB78091000166E00E943322682F70E002
:1023100080910101869521E049E551E08E51990BAC
:102320000E94361B80910001282F30E050E040E0F1
:1023300029833A834B835C83CA01B9010E9434200C
:1023400026E636E646E150E469837A838B839C83F4
:1023500069817A818B819C810E948A1F69837A833B
:102360008B839C8369817A818B819C810E94FC1F75
:10237000362F80910101869521E047E651E0632FD9
:102380008E51990B0E94361B80910001282F30E05E
:1023900050E040E029833A834B835C83CA01B90152
:1023A0000E94342020E030E040EC5FE369837A83D0
:1023B0008B839C8369817A818B819C810E948A1F97
:1023C00069837A838B839C8369817A818B819C81E9
:1023D0000E94FC1F362F80910101869521E044E781
:1023E00051E0632F8E51990B0E94361B0E943E19BB
:1023F00081E00E94E4058823D9F381E00F900F90DB
:102400000F900F90DF91CF910C94080680913401CA
:10241000882331F09091360180913501891718F4A5
:1024200081E080937F020895CF93DF9300D000D0A6
:1024300000D00F92CDB7DEB70E94511980910001F4
:1024400067E00E943322282F30E03E832D83809165
:102450000101282F30E050E040E029833A834B838C
:102460005C83CA01B9010E94342020E030E040E8DA
:102470005EE369837A838B839C8369817A818B8114
:102480009C810E94282169837A838B839C83698144
:102490007A818B819C810E94FC1FE62F372F21E0DF
:1024A0004EE751E06D817E818E2F932F0E94361B67
:1024B000309100013695432F50E05E834D8380912B
:1024C0000101282F30E050E040E029833A834B831C
:1024D0005C83CA01B9010E94342020E030E040E86A
:1024E0005EE369837A838B839C8369817A818B81A4
:1024F0009C810E94282169837A838B839C836981D4
:102500007A818B819C810E94FC1FE62F372F21E06E
:1025100048E851E06D817E818E2F932F0E94361BFB
:1025200080910001282F30E050E040E029833A8379
:102530004B835C83CA01B9010E94342020E030E063
:1025400040EC5FE369837A838B839C8369817A8122
:102550008B819C810E948A1F69837A838B839C83F1
:1025600069817A818B819C810E94FC1F6F837D83AE
:1025700080910101282F30E050E040E029833A8328
:102580004B835C83CA01B9010E9434202DEC3CECE2
:102590004CEC5DE369837A838B839C8369817A81C8
:1025A0008B819C810E94282169837A838B839C8301
:1025B00069817A818B819C810E94FC1FE62F372FD5
:1025C00021E041E951E06F817D818E2F932F0E94A0
:1025D000361B0E943E1981E00E94E4058823D9F34E
:1025E00088E198E00FB6F894A895809360000FBE3C
:1025F00090936000FFCF2F923F924F925F926F9225
:102600007F928F929F92AF92BF92CF92DF92EF9282
:10261000FF920F931F93CF93DF93CDB7DEB7C05FC9
:10262000D1090FB6F894DEBF0FBECDBF8091E00494
:102630001F928F9380914C051F928F938BEA91E0AC
:102640009F938F931F9219E11F934E0185EB880E84
:10265000911C9F928F920E941E24809136011F929E
:102660008F9382EC91E09F938F931F921F935E0153
:102670009CE9A90EB11CBF92AF920E941E248091CA
:1026800034011F928F9386ED91E09F938F931F9259
:102690001F936E0183E8C80ED11CDF92CF920E9477
:1026A0001E24809180021F928F938AEE91E09F9367
:1026B0008F931F928FE08F937E0192EEE90EF11CB3
:1026C000FF92EF920E941E240FB6F894DEBF0FBE59
:1026D000CDBF809178021F928F9386EF91E09F93F8
:1026E0008F931F921EE11F933E0195E6690E711CA8
:1026F0007F926F920E941E2480917C021F928F9382
:1027000080E192E09F938F931F921F932E0187E4A5
:10271000480E511C5F924F920E941E2480918002AD
:102720001F928F9387E292E09F938F931F9288E28C
:102730008F9381E090E08C0F9D1F9F938F930E9459
:102740001E2480917A021F928F9387E492E09F93D8
:102750008F931F921F931E0199E2290E311C3F9205
:102760002F920E941E240FB6F894DEBF0FBECDBF7D
:1027700080917E0281114DC085EA91E09F938F93F5
:1027800082E692E09F938F931F9284E18F938E0154
:1027900002531F4F1F930F930E941E24C4010E94D7
:1027A0004F03C5010E944F03C6010E944F03C7019A
:1027B0000E944F03C3010E944F03C2010E944F03B6
:1027C000CE0101960E944F03C1010E944F03C80130
:1027D0000E944F030FB6F894DEBF0FBECDBFC051AD
:1027E000DF4F0FB6F894DEBF0FBECDBFDF91CF91A4
:1027F0001F910F91FF90EF90DF90CF90BF90AF901F
:102800009F908F907F906F905F904F903F902F9010
:10281000089580EA91E0B2CF0E94F614282F215645
:10282000330BF9012731310508F07EC0EF5EFA4D18
:102830000C9453228091B104882309F475C020912F
:10284000D8043091D9044091DA045091DB046091AE
:10285000D0047091D1048091D2049091D3040E944D
:10286000131F6093D0047093D1048093D20490938B
:10287000D30408958091CA04882309F455C0209197
:10288000D4043091D5044091D6045091D70460917E
:10289000CC047091CD048091CE049091CF040E941D
:1028A000131F6093CC047093CD048093CE04909357
:1028B000CF0408958091B2048823B1F12091D80407
:1028C0003091D9044091DA045091DB046091D00436
:1028D0007091D1048091D2049091D3040E94141F6E
:1028E000C0CF80912E048823F9F02091D404309138
:1028F000D5044091D6045091D7046091CC047091D6
:10290000CD048091CE049091CF040E94141FC9CFB2
:102910000C94C50E0C948C05809136018F5F8093CA
:10292000360108950C94FB1208950E9451190E94DB
:10293000F7020E947B110C940F100E94B70C0E94AA
:10294000870D0E942D0E0E9451190E940C140E94A6
:10295000FD0E0E9420090E945D0B0E94570B0E94F1
:10296000BD080E94DB080E94F9080E94FD0F0E942A
:1029700027110E94B8100E94FB100E9412090E94A9
:1029800007090E9406120C943E190E9495148FE1CB
:102990009EE40197F1F700C000000E949D14809111
:1029A0007F028823A1F30E9414128091E80080FF27
:1029B000FCCF089581E08093D70080EA8093D8000F
:1029C00082E189BD09B400FEFDCF80E98093D80083
:1029D0001092E00010928902109286028CE080939F
:1029E000E200789408958091890208959FB7F89441
:1029F00080918902811104C09FBF8FEF9FEF0895DE
:102A000083E08093E9002BE68091E80085FD05C016
:102A100082FFF2CF2093E800F7CF8091F100209160
:102A2000E80025FD03C02BE62093E8009FBF90E05F
:102A300008952FB7F89480918902811103C080E036
:102A40002FBF089583E08093E9008091F200811107
:102A5000F7CF9091E80092FFF2CF892F807295FD19
:102A6000EECF9BE69093E800EBCF8091890288231C
:102A700059F08FB7F89493E09093E9002BE690918A
:102A8000E80095FD02C08FBF08952093E800F7CFBE
:102A900090918902911102C08FEF08959FB7F89429
:102AA00024E02093E90020918702222341F0209125
:102AB000E80025FD02C09FBFEFCF10928702209152
:102AC000E400275E34E04091E80045FD12C09FBF5E
:102AD0009091E400921304C081E080938702DCCFE0
:102AE000909189029923C1F29FB7F8943093E9003D
:102AF000EACF8093F1008091E80085FD03C08AE36E
:102B00008093E80085E0809388029FBF80E008956D
:102B100090918902992351F09FB7F89424E0209373
:102B2000E9002091E80025FD03C09FBF8FEF0895C5
:102B30008093F1008091E80085FD03C08AE38093D3
:102B4000E80085E0809388029FBF80E008959B01A4
:102B500040918902411102C08FEF08954FB7F89458
:102B600054E05093E90050918702552341F0509171
:102B7000E80055FD02C04FBFEFCF1092870254E02E
:102B800060E47AE3A5E02115310511F480E00895B1
:102B9000E091E400E75EF091E800F5FD12C04FBF60
:102BA0004091E4004E1304C081E080938702D4CFAB
:102BB00040918902442381F24FB7F8945093E90081
:102BC000EACFE091F200B62FBE1BB217130611F048
:102BD00008F0B22FEB2FF0E02E1B3F0BB13408F0C2
:102BE0003FC1E85DFA4D0C945322FC018191809322
:102BF000F100CF01FC0181918093F100CF01FC0134
:102C000081918093F100CF01FC0181918093F100CB
:102C1000CF01FC0181918093F100CF01FC018191F2
:102C20008093F100CF01FC0181918093F100CF01ED
:102C3000FC0181918093F100CF01FC01819180938F
:102C4000F100CF01FC0181918093F100CF01FC01E3
:102C500081918093F100CF01FC0181918093F1007B
:102C6000CF01FC0181918093F100CF01FC018191A2
:102C70008093F100CF01FC0181918093F100CF019D
:102C8000FC0181918093F100CF01FC01819180933F
:102C9000F100CF01FC0181918093F100CF01FC0193
:102CA00081918093F100CF01FC0181918093F1002B
:102CB000CF01FC0181918093F100CF01FC01819152
:102CC0008093F100CF01FC0181918093F100CF014D
:102CD000FC0181918093F100CF01FC0181918093EF
:102CE000F100CF01FC0181918093F100CF01FC0143
:102CF00081918093F100CF01FC0181918093F100DB
:102D0000CF01FC0181918093F100CF01FC01819101
:102D10008093F100CF01FC0181918093F100CF01FC
:102D2000FC0181918093F100CF01FC01819180939E
:102D3000F100CF01FC0181918093F100CF01FC01F2
:102D400081918093F100CF01FC0181918093F1008A
:102D5000CF01FC0181918093F100CF01FC018191B1
:102D60008093F100CF01FC0181918093F100CF01AC
:102D7000FC0181918093F100CF01FC01819180934E
:102D8000F100CF01FC0181918093F100CF01FC01A2
:102D900081918093F100CF01FC0181918093F1003A
:102DA000CF01FC0181918093F100CF01FC01819161
:102DB0008093F100CF01FC0181918093F100CF015C
:102DC000FC0181918093F100CF01FC0181918093FE
:102DD000F100CF01FC0181918093F100CF01FC0152
:102DE00081918093F100CF01FC0181918093F100EA
:102DF000CF01FC0181918093F100CF01FC01819111
:102E00008093F100CF01FC0181918093F100CF010B
:102E1000FC0181918093F100CF01FC0181918093AD
:102E2000F100CF01FC0181918093F100CF01FC0101
:102E300081918093F100CF01FC0181918093F10099
:102E4000CF01FC0181918093F100CF01FC018191C0
:102E50008093F100CF01FC0181918093F100CF01BB
:102E6000FC0181918093F100CF01E091E800E5FF42
:102E70007093E800A09388024FBF85CE8FB7F89477
:102E800090918802992341F094E09093E9009AE3AD
:102E90009093E800109288028FBF0895CF93DF933C
:102EA00000D000D0CDB7DEB78091370190913801C6
:102EB000A0913901B0913A01BC01CD010F900F9062
:102EC0000F900F90DF91CF91089580913B0108956D
:102ED00080913C01089580913D0108958091860282
:102EE00008959FB7F89420918902211103C09FBFD4
:102EF0008FEF089522E02093E9002091E80025FF5C
:102F0000F6CF21EA2093F10020E22093F100109205
:102F1000F1001092F1001092F1001092F10021E006
:102F20002093F1001092F1008093F1008AE38093E6
:102F3000E8009FBF80E008951F921FB61F921124E2
:102F40008F939F938091E1001092E10083FF11C065
:102F50001092E90091E09093EB001092EC0092E166
:102F60009093ED0098E09093F000109289021092F7
:102F7000860282FF13C080918902882379F08091B4
:102F80008802882359F0815080938802811106C0FD
:102F900084E08093E9008AE38093E8009F918F9119
:102FA0001F901FBE1F9018951F920F920FB60F9281
:102FB0001124EF92FF920F931F932F933F934F9300
:102FC0005F936F937F938F939F93AF93BF93CF93B1
:102FD000DF93EF93FF931092E9008091E80083FF65
:102FE00071C0D091F100C091F100E090F1008091AA
:102FF000F100F82E0091F1008091F100182F20913E
:10300000F1003091F10082EF8093E800C63009F0C2
:1030100065C08CEC91E046EF51E0FC016591749144
:10302000E616F70609F049C0FC01329665917491E5
:103030000617170709F041C0FC01349645915491D9
:103040000696FC0184912F3F310519F010F02FEF07
:1030500030E0281708F4822F3EEF9091E800292FE6
:103060002570D9F392FD12C0982F813108F090E1BC
:10307000FA01292F21112CC0490F511D282F291B7E
:103080003093E800891322C0803100F5FF91EF9161
:10309000DF91CF91BF91AF919F918F917F916F9170
:1030A0005F914F913F912F911F910F91FF90EF9062
:1030B0000F900FBE0F901F9018950796481759074D
:1030C00009F0ABCF81E28093EB00E0CF822FC5CF38
:1030D00064916093F10021503196CCCFC53051F40A
:1030E0008EEF8093E8000E94D5148E2D8068809327
:1030F000E300CCCFC93069F5D111E4CFE092890269
:1031000010928602109288028EEF8093E80021E0F0
:103110008BE892E02093E900AC014F5F5F4FFC0128
:1031200034913093EB00332391F0FA0144914093B2
:10313000EC003196E4910396E093ED002F5F25308B
:1031400049F78EE18093EA001092EA009FCFCA010E
:10315000F5CFC83069F4D03809F0B4CF0E94D51447
:10316000809189028093F1008EEF8093E8008ECFEA
:10317000C13289F4D13A09F0A5CF0E94D51487E372
:1031800091E0FC01019620812093F100F1E08E3363
:103190009F07B9F7E9CFC032B1F4D13209F092CF2D
:1031A0008091E80082FFFCCF87E391E0FC0101966B
:1031B0002091F100208321E08E339207B9F78BEF45
:1031C0008093E800D1CFC23241F4D13209F07ACFF6
:1031D000E09286020E94D514C7CFC11112C00E948E
:1031E000D514D23849F40093E900C091EB00C5FB37
:1031F000CC27C0F91092E900C093F1001092F100C1
:10320000B3CF8C2F8D7F813009F05CCFD23009F0A5
:1032100059CFEF2809F056CF0F778FEF800F84300A
:1032200008F050CF8EEF8093E8000093E900C330A0
:1032300009F448CF89E18093EB0081E090E001C080
:10324000880F0A95EAF77ECF87E880937A00089581
:10325000982F9F71906490937C00807280937B0084
:1032600080917A00806480937A0080917A0086FD54
:10327000FCCF80917800909179000895CF93DF93EF
:1032800060E080E00E94BA1BCDE4D5E0699181E066
:103290000E945F1B87E0C534D807C1F7DF91CF914B
:1032A0000895EDE4F5E0119287E0E534F807D9F7E9
:1032B0000895DC019B0184359105F8F42033310534
:1032C000E0F4C90133E0959587953A95E1F734E547
:1032D000389FF001399FF00D1124EA0FFB1FE35BCB
:1032E000FA4F3081277081E090E001C0880F2A9565
:1032F000EAF7452B19F0832B80830895809583236B
:10330000FBCF2F923F924F925F926F927F928F925C
:103310009F92AF92BF92CF92DF92EF92FF920F9364
:103320001F93CF93DF93CDB7DEB72C970FB6F894EA
:10333000DEBF0FBECDBF8B879C877B016A01590121
:103340002B853C8524173507A1F56B0113C081E05F
:10335000C81AD1080FC0CA14DB0494F0A801B60142
:103360008B859C850E945919EA14FB0484F73FEF72
:10337000C31AD30AEA14FB0474F7AC14BD0474F73F
:103380002C960FB6F894DEBF0FBECDBFDF91CF9164
:103390001F910F91FF90EF90DF90CF90BF90AF9073
:1033A0009F908F907F906F905F904F903F902F9065
:1033B00008956A157B0501F5AB84BC8414C021E037
:1033C000A21AB10810C0AC14BD04D4F2A801B70110
:1033D000C5010E945919AB85BC85AC15BD057CF7AC
:1033E000BFEFAB1ABB0A8B859C858C159D055CF7DE
:1033F000CA14DB045CF7C4CFAB85BC854A175B07F6
:1034000054F48F2D7501A62EB82E9B858C855C8774
:103410004B87C92ED82E36012B853C85621A730A3C
:1034200045018E189F08C401092C000CAA0BBB0B88
:1034300089839A83AB83BC83BC01CD010E94342075
:103440001B012C01C301072C000CAA0BBB0B8983A9
:103450009A83AB83BC83BC01CD010E9434209B01C5
:10346000AC0129823A824B825C8269817A818B81AC
:103470009C810E948A1F462F572FBC014D835E837B
:103480006F83788720E030E0A9016D817E818F8194
:1034900098850E94232187FF09C08D819E81AF817D
:1034A000B885B0588D839E83AF83B887512C412C4B
:1034B000312C212C892D881F8827881FA82FB0E048
:1034C000BA87A987161417040CF068C02B853C85B1
:1034D000C216D3060CF454CFA801B7018B859C8586
:1034E0000E9459192D813E814F81588559824A8207
:1034F0003B822C8269817A818B819C810E94141F7E
:10350000562E472E382E292E20E030E040E05FE393
:1035100069837A838B839C8369817A818B819C8187
:103520000E94232187FD06C01814190464F4AE1408
:10353000BF0464F4161417045CF58B859C85019612
:103540009C878B87BFCFEA14FB04A4F3A801B701C3
:103550008B859C850E94591981E090E0181419040C
:1035600014F090E080E029853A85821B930BE80EE9
:10357000F91E20E030E040E85FE359824A823B8256
:103580002C8269817A818B819C810E94131FB8CF24
:10359000AB85BC851197BC87AB8794CF8B859C8509
:1035A0008C159D050CF098CFEBCE4F925F926F92E9
:1035B0007F928F929F92AF92BF92CF92DF92EF92C3
:1035C000FF920F931F93CF93DF933B01590140521A
:1035D000550B65E0649F9001659F300D1124A90192
:1035E0004B565D4F7A01EC012C0155E0450E511C04
:1035F00088248394912CF701C490A114B10409F498
:10360000C09410E000E0D12CA401002E02C0440FB1
:10361000551F0A94E2F74C215D21002E02C05595FA
:1036200047950A94E2F7B301600F711FCE010E9423
:1036300059190F5F1F4F0830110531F7FFEFEF1ACF
:10364000FF0A2196C415D505B1F6DF91CF911F91E0
:103650000F91FF90EF90DF90CF90BF90AF909F9031
:103660008F907F906F905F904F900895CF92DF92F0
:10367000EF92FF920F931F93CF93DF93F62EE72ED7
:103680008A01D22EC32EC82FD0E0F801ED0FF11D14
:103690004081411109C0DF91CF911F910F91FF909F
:1036A000EF90DF90CF9008952D2D3C2D6F2D7E2D26
:1036B0008C2F90E00E94D51ACB5FDF5FE6CF95B1EB
:1036C0009F7D40E2849F90011124922B95B95F98D1
:1036D00087E090E070E08F989B01082E02C035953E
:1036E00027950A94E2F720FF06C02E9A8F9A019739
:1036F00090F75F9A08952E98F9CFCF93C82F579AD5
:10370000249A259A269A879A2C985F9A2C9A61E295
:1037100080E00E945F1B6C2F606880E00E945F1B4E
:1037200064E080E00E945F1B63E180E00E945F1B19
:103730006CE080E00E945F1B60E280E00E945F1B03
:103740006CE080E00E945F1B60E480E00E945F1BF1
:1037500060E880E0CF910C945F1BCF93DF93C8EFBC
:10376000D1E060E081E00E945F1B2197D1F7DF91FB
:10377000CF910895CF93C82F606480E00E945F1BB3
:103780006C2F606880E0CF910C945F1BAFE0B0E0DD
:10379000ECECFBE10C9459226C011B014A01FC0189
:1037A00017821682838181FF34C39E012F5F3F4FB2
:1037B0003901F6019381F10193FD859193FF819188
:1037C0001F01882309F4D6C2853239F493FD85910F
:1037D00093FF81911F01853239F4B60190E00E9478
:1037E000EE2354014501E5CFF12C512C00E00032CD
:1037F00038F48B3209F190F48032F9F0833209F118
:1038000007FD34C020ED280F2A3020F506FF1BC02D
:10381000FAE0FF9E200D1124F22E05C08D3279F0C2
:10382000803371F70160F10193FD859193FF8191E0
:103830001F018111DCCF1AC002600460F4CF086060
:10384000F2CF0061F0CF3AE0539E200D1124522EAA
:103850000062E9CF8E3221F406FD8CC20064E3CF12
:103860008C3611F40068DFCF8836E9F29BEB980FB5
:10387000933008F05CC00061805E06FD02C046E047
:10388000F42E102F1F73853609F058C0106417FFEF
:103890005EC08F2D9BE39F1508F48BE34424439473
:1038A000480E27E0F40161917191819191915F013E
:1038B000042DA3010E9400234C01F981FC87F0FF35
:1038C00003C00DE2F3FF07C00BE211FD04C0012F9E
:1038D000047012FD00E22C852C70E22E09F457C012
:1038E00001119AC2F3E0E12CF515A0F483E0E52C78
:1038F000E81A13FD08C0B60180E290E00E94EE23B2
:10390000EA94E110F8CF002329F0B601802F90E06F
:103910000E94EE233C852AEC822E20E0922E33FD7D
:1039200004C09EEC892E90E0992E107122C09BE974
:10393000980F933008F034C10F7E9FCF863611F474
:103940001068A5CFFF2009F4A2CFFA94A0CFE7E03A
:103950002F2DEF1518F427E037E0F32E412CA2CFDE
:1039600011118052B60190E00E94EE238FEF881A69
:10397000980AF40184918111F3CFEE2009F432CF3B
:10398000B60180E290E00E94EE23EA94F6CF17FFA2
:1039900070C0480CFC85F4FF04C08A81813309F4AF
:1039A0004A9414140CF087C028E0241510F488E021
:1039B000482E85E090E017FF06C0C40197FE02C0C4
:1039C00090E080E0019601110196FF2031F02F2D4B
:1039D00030E02F5F3F4F820F931F5816190619F0E2
:1039E00014F0E52CE81A812F897011F4E11068C0F9
:1039F000002329F0B601802F90E00E94EE2313FDF2
:103A000002C0E11064C017FF7DC0840197FE02C0B0
:103A100010E000E0C401841991092C016F2D70E0C1
:103A2000EE27FF27E61BF70BFF87EE878016910630
:103A30000CF454C0401651060CF050C0F401E01BC9
:103A4000F10BE60DF71D8181015011092E853F858F
:103A5000021713070CF444C0B60190E00E94EE2355
:103A60000F3F100719F7B6018EE290E00E94EE2397
:103A7000DDCF16FD9ECFEF2DF0E0E815F90534F00F
:103A80003CEF83163FEF93060CF010683296E60D7C
:103A9000F71D01C0FA94FF2019F082918033D1F311
:103AA00017FF87CF442443944F0CF814190431F0C6
:103AB0002CF0F8187ECF442443947BCFF12C79CF9F
:103AC000B60180E290E00E94EE23EA948FCFB60127
:103AD00080E390E00E94EE23EA9493CF80E3B4CF9A
:103AE0008016910641F49A81963350F4953319F477
:103AF0009C8594FF05C0B60190E00E94EE233DCF67
:103B000081E3F9CF8A81813319F0EC85EF7EEC8770
:103B1000B60190E00E94EE23FF20A9F0B6018EE2EC
:103B200090E00E94EE23F394F394E2E001E00E0FA4
:103B3000E60DF72DF11D8081B60190E00E94EE2385
:103B4000E02F0F11F3CF85E690E014FF02C085E46B
:103B500090E0B6010E94EE2397FC06C08114910408
:103B6000C1F4FC85F4FF15C09194819491088DE215
:103B7000B60190E00E94EE2380E33AE083169104C0
:103B800054F4B60190E00E94EE23B601C401C09641
:103B9000B4CF8BE2EDCF8F5F2AE0821A9108EDCF90
:103BA0008336B1F0833759F1833509F055C0F401FC
:103BB000819091905F016F2D70E006FD02C06FEF64
:103BC0007FEFC4010E94D8239D878C8700680DC0B9
:103BD000540182E0A80EB11CF4018081898321E0A8
:103BE00030E03D872C8743010F7703FD06C02C850D
:103BF0003D855216130609F090F4E52C28C0F40117
:103C0000819091905F016F2D70E006FD02C06FEF13
:103C10007FEFC4010E94E3239D878C87E5CFB60127
:103C200080E290E00E94EE235A94E1CFF40107FD78
:103C3000859107FF81914F01B60190E00E94EE232C
:103C4000E110EA948C859D8501979D878C87EC8592
:103C5000FD85EF2B59F791CE843619F0893609F09E
:103C60006EC0F40107FF63C06191719181919191E0
:103C70005F01102F1F7697FF08C090958095709573
:103C800061957F4F8F4F9F4F10682AE030E0A3016E
:103C90000E944E24882E8618982C012F16FF0AC0E9
:103CA0000E7F8F1438F414FF04C012FD02C0012FE0
:103CB0000E7E9F2C04FF85C0FE01E80DF11D808162
:103CC000803309F077C0097EF02FF870EF2E03FDE6
:103CD00087C000FF81C0F82C951410F4F50CF9187A
:103CE00004FF84C0B60180E390E00E94EE2302FF4F
:103CF00009C088E790E001FF02C088E590E0B601C6
:103D00000E94EE238F1408F47DC08A94082D10E0E1
:103D10000F5F1F4F060D171DF80182918F01B6012D
:103D200090E00E94EE2306151705B1F726CE6191AB
:103D300071915F01072E000C880B990B9ACF102F01
:103D4000853791F41F7E2AE030E0F40117FF2CC084
:103D500061917191819191915F01A3010E944E2423
:103D6000882E86181F7798CF197F8F36D1F048F4A8
:103D7000883591F0F601868197812F96E2E10C94C7
:103D80007522803739F08837A9F714FD146020E1D7
:103D900030E0DBCF1061F9CF04FD166020E132E0A6
:103DA000D4CF28E030E0D1CF619171915F0190E0F4
:103DB00080E0D3CF02FD02C0939486CF9394939476
:103DC00083CF802F867809F47FCFF6CFB60180E2CB
:103DD00090E00E94EE2393949514C0F3E12C80CFE1
:103DE000E52CE918951408F47BCFF8CF802F86785E
:103DF00009F488CF8BE201FF80E207FD8DE2B60176
:103E000090E07ECFB60180E390E00E94EE23FA942A
:103E100079CF8FEF9FEFB1CF24E0E12C251508F08B
:103E200074CD84E064CD5058BB27AA270E942B1F75
:103E30000C94D5200E949C2038F00E94A32020F0F2
:103E400039F49F3F19F426F40C9499200EF4E09570
:103E5000E7FB0C949320E92F0E94FA2058F3BA173D
:103E6000620773078407950720F079F4A6F50C9490
:103E70001C210EF4E0950B2EBA2FA02D0B01B901D9
:103E800090010C01CA01A0011124FF27591B99F0D0
:103E9000593F50F4503E68F11A16F040A22F232FDC
:103EA000342F4427585FF3CF469537952795A7952C
:103EB000F0405395C9F77EF41F16BA0B620B730BD3
:103EC000840BBAF09150A1F0FF0FBB1F661F771F44
:103ED000881FC2F70EC0BA0F621F731F841F48F4F9
:103EE000879577956795B795F7959E3F08F0B0CF82
:103EF0009395880F08F09927EE0F97958795089569
:103F00000E946F2008F481E008950E94AC20E395A0
:103F10000C94E6200E949E1F0C94D5200E94A320A2
:103F200058F00E949C2040F029F45F3F29F00C9447
:103F3000932051110C941D210C9499200E94FA2079
:103F400068F39923B1F3552391F3951B550BBB27C8
:103F5000AA2762177307840738F09F5F5F4F220F0D
:103F6000331F441FAA1FA9F335D00E2E3AF0E0E804
:103F700032D091505040E695001CCAF72BD0FE2F4E
:103F800029D0660F771F881FBB1F261737074807E2
:103F9000AB07B0E809F0BB0B802DBF01FF2793589A
:103FA0005F4F3AF09E3F510578F00C9493200C94AB
:103FB0001D215F3FE4F3983ED4F38695779567958E
:103FC000B795F7959F5FC9F7880F911D96958795CF
:103FD00097F90895E1E0660F771F881FBB1F6217EE
:103FE00073078407BA0720F0621B730B840BBA0BAC
:103FF000EE1F88F7E09508950E9403206894B111A0
:104000000C941D2108950E94022188F09F5798F07A
:10401000B92F9927B751B0F0E1F0660F771F881FCD
:10402000991F1AF0BA95C9F714C0B13091F00E94E7
:104030001C21B1E008950C941C21672F782F88274C
:10404000B85F39F0B93FCCF3869577956795B3950E
:10405000D9F73EF490958095709561957F4F8F4F7D
:104060009F4F0895E89409C097FB3EF49095809582
:10407000709561957F4F8F4F9F4F9923A9F0F92F2E
:1040800096E9BB279395F695879577956795B795AC
:10409000F111F8CFFAF4BB0F11F460FF1BC06F5F92
:1040A0007F4F8F4F9F4F16C0882311F096E911C0A4
:1040B000772321F09EE8872F762F05C0662371F0C5
:1040C00096E8862F70E060E02AF09A95660F771FD9
:1040D000881FDAF7880F9695879597F90895990FB5
:1040E0000008550FAA0BE0E8FEEF16161706E807C2
:1040F000F907C0F012161306E407F50798F0621BE3
:10410000730B840B950B39F40A2661F0232B242BB7
:10411000252B21F408950A2609F4A140A6958FEFD6
:10412000811D811D089597F99F6780E870E060E028
:1041300008959FEF80EC089500240A941616170640
:1041400018060906089500240A9412161306140688
:10415000050608950C9499200E940221D8F3E89452
:10416000E0E0BB279F57F0F02AED3FE049EC06C0A6
:10417000EE0FBB0F661F771F881F28F0B23A620749
:104180007307840728F0B25A620B730B840BE39514
:104190009A9572F7803830F49A95BB0F661F771F97
:1041A000881FD2F790480C94E521092E0394000C47
:1041B00011F4882352F0BB0F40F4BF2B11F460FFC1
:1041C00004C06F5F7F4F8F4F9F4F0895EF93E0FFC5
:1041D00007C0A2EA2AED3FE049EC5FEB0E942B1FEB
:1041E0000E94D5200F90039401FC9058ECEAF0E077
:1041F0000C94F82157FD9058440F551F59F05F3F1C
:1042000071F04795880F97FB991F61F09F3F79F0F8
:1042100087950895121613061406551FF2CF46957A
:10422000F1DF08C0161617061806991FF1CF8695FC
:104230007105610508940895E894BB2766277727E0
:10424000CB0197F908950E946F2008F48FEF08952D
:104250000E943B210C94D5200E949C2038F00E94A3
:10426000A32020F0952311F00C9493200C94992016
:1042700011240C941D210E94FA2070F3959FC1F324
:10428000950F50E0551F629FF001729FBB27F00D04
:10429000B11D639FAA27F00DB11DAA1F649F662759
:1042A000B00DA11D661F829F2227B00DA11D621FA8
:1042B000739FB00DA11D621F839FA00D611D221F62
:1042C000749F3327A00D611D231F849F600D211D46
:1042D000822F762F6A2F11249F5750409AF0F1F0C9
:1042E00088234AF0EE0FFF1FBB1F661F771F881F32
:1042F00091505040A9F79E3F510580F00C949320B7
:104300000C941D215F3FE4F3983ED4F38695779596
:104310006795B795F795E7959F5FC1F7FE2B880FD7
:10432000911D9695879597F908959F930E94AC20CB
:104330000F9007FCEE5F0C94E62019F416F40C9431
:1043400099200C94E3210E940221B8F39923C9F328
:10435000B6F39F57550B87FF0E94F1210024A0E67A
:1043600040EA900180585695979528F4805C660F36
:10437000771F881F20F026173707480730F4621B85
:10438000730B840B202931294A2BA6951794079487
:10439000202531254A2758F7660F771F881F20F000
:1043A00026173707480730F4620B730B840B200D78
:1043B000311D411DA09581F7B901842F9158880FB7
:1043C0009695879508959F3F31F0915020F48795F9
:1043D00077956795B795880F911D9695879597F96D
:1043E000089591505040660F771F881FD2F70895A7
:1043F0009F938F937F936F93FF93EF939B01AC01F8
:104400000E942821EF91FF910E940C222F913F9151
:104410004F915F910C942821DF93CF931F930F93BB
:10442000FF92EF92DF927B018C01689406C0DA2E36
:10443000EF010E943B21FE01E894A5912591359161
:1044400045915591A6F3EF010E942B1FFE019701A4
:10445000A801DA9469F7DF90EF90FF900F911F9118
:10446000CF91DF910895991B79E004C0991F9617A9
:1044700008F0961B881F7A95C9F78095089597FBD9
:10448000072E16F4009407D077FD09D00E949022E1
:1044900007FC05D03EF4909581959F4F0895709547
:1044A00061957F4F0895EE0FFF1F0590F491E02D69
:1044B00009942F923F924F925F926F927F928F92C8
:1044C0009F92AF92BF92CF92DF92EF92FF920F93A3
:1044D0001F93CF93DF93CDB7DEB7CA1BDB0B0FB6AD
:1044E000F894DEBF0FBECDBF09942A88398848886A
:1044F0005F846E847D848C849B84AA84B984C88400
:10450000DF80EE80FD800C811B81AA81B981CE0FF6
:10451000D11D0FB6F894DEBF0FBECDBFED010895DB
:10452000AA1BBB1B51E107C0AA1FBB1FA617B707D9
:1045300010F0A61BB70B881F991F5A95A9F78095F5
:104540009095BC01CD0108958F929F92AF92BF923A
:10455000CF92DF92EF92FF92CF93DF93EC016881CD
:1045600079818A819B81611571058105910521F40D
:1045700064E279ED8BE597E02DE133EF41E050E027
:104580000E94AC2449015A019B01AC01A7EAB1E4A5
:104590000E94CB246B017C01ACEEB4EFA501940129
:1045A0000E94D924DC01CB018C0D9D1DAE1DBF1DC9
:1045B000B7FF03C00197A109B04888839983AA83F4
:1045C000BB839F77DF91CF91FF90EF90DF90CF90EB
:1045D000BF90AF909F908F9008950E94A42208955D
:1045E0008EE391E00E94A4220895B0E0A0E08093C1
:1045F0003E0190933F01A0934001B0934101089583
:10460000283008F027E03327DA01990F311D87FDA4
:10461000916000966105710539F432602E5F3D931B
:1046200030E32A95E1F708959F3F30F08038710517
:10463000610509F03C5F3C5F3D93913008F0806874
:10464000911DDF93CF931F930F93FF92EF92192F3A
:10465000987F9695E92F96959695E90FFF27E45D4B
:10466000FE4F99273327EE24FF24A701E701059089
:104670000894079428F4360FE71EF81E491F511DB1
:10468000660F771F881F991F0694A1F7059007945E
:1046900028F4E70EF81E491F561FC11D770F881F0B
:1046A000991F661F0694A1F70590079428F4F80E49
:1046B000491F561FC71FD11D880F991F661F771FDF
:1046C0000694A1F70590079420F4490F561FC71FC1
:1046D000D81F990F661F771F881F0694A9F784912A
:1046E0001095177041F0D695C79557954795F79453
:1046F000E7941A95C1F7E2EDF0E0689415901591F2
:1047000035916591959105907FE27395E118F10AD5
:10471000430B560BC90BD009C0F7E10CF11E431F28
:10472000561FC91FD01D7EF4703311F48A95E6CF51
:10473000E894015030F0080F0AF40027021708F43B
:10474000202F2395022F7A3328F079E37D932A9541
:10475000E9F710C07D932A9589F606949795679599
:10476000379517951794E118F10A430B560BC90BAF
:10477000D00998F023957E9173957A3308F070E311
:104780007C932013B8F77E9170617D9330F0839510
:1047900071E37D9370E32A95E1F71124EF90FF9088
:1047A0000F911F91CF91DF91992787FD90950895E3
:1047B000FC010590615070400110D8F780959095EC
:1047C0008E0F9F1F0895FC016150704001900110F1
:1047D000D8F7809590958E0F9F1F08950F931F9384
:1047E000CF93DF93182F092FEB018B8181FD09C037
:1047F0001FEF0FEF812F902FDF91CF911F910F911E
:10480000089582FF14C02E813F818C819D812817DD
:1048100039073CF4E881F981CF01019699838883B7
:1048200010838E819F8101969F838E83E3CFE885DD
:10483000F985812F0995892BA1F3DACFAEE0B0E09D
:10484000E4E2F4E20C9467220D891E898F89988D29
:1048500026E02C831A83098397FF02C080E090E84A
:1048600001979E838D83AE01455E5F4F698D7A8D82
:10487000CE0101960E94C61B4D815E8157FD0AC084
:104880002F813885421753070CF49A01020F131F2A
:10489000F80110822E96E4E00C948322FA01AA27F4
:1048A000283051F1203181F1E8946F936E7F6E5F73
:1048B0007F4F8F4F9F4FAF4FB1E03ED0B4E03CD021
:1048C000670F781F891F9A1FA11D680F791F8A1F04
:1048D000911DA11D6A0F711D811D911DA11D20D06B
:1048E00009F468943F912AE0269F11243019305D25
:1048F0003193DEF6CF010895462F4770405D419316
:10490000B3E00FD0C9F7F6CF462F4F70405D4A3362
:1049100018F0495D31FD4052419302D0A9F7EACF2A
:10492000B4E0A6959795879577956795BA95C9F759
:1049300000976105710508959B01AC010A2E06944C
:104940005795479537952795BA95C9F7620F731F05
:10495000841F951FA01D0895052E97FB1EF400943B
:104960000E94C32457FD07D00E94DE2407FC03D019
:104970004EF40C94C32450954095309521953F4FAB
:104980004F4F5F4F089590958095709561957F4F3B
:104990008F4F9F4F08950E940025A59F900DB49FB3
:1049A000900DA49F800D911D11240895B7FF0C94C4
:1049B000CB240E94CB24821B930B0895A1E21A2ED4
:1049C000AA1BBB1BFD010DC0AA1FBB1FEE1FFF1FB3
:1049D000A217B307E407F50720F0A21BB30BE40B03
:1049E000F50B661F771F881F991F1A9469F760954A
:1049F0007095809590959B01AC01BD01CF01089504
:104A0000A29FB001B39FC001A39F700D811D11240F
:104A1000911DB29F700D811D1124911D0895F89470
:104A2000FFCF3A14941494147114941488149414A9
:104A300094149214941494148C1494149414941440
:104A40008A14941494145A149414941494141A14E4
:104A5000351730172B17261721171C171717121782
:104A60000D1708170317FE16F916F416EF16EA16B7
:104A7000E516E016DB16D616D116CC16C716C216EA
:104A8000BD16B816B316AE16A916A4169F169A161A
:104A9000951690168B16861681167C16771672164A
:104AA0006D16681663165E16591654164F164A167A
:104AB000451640163B16361631162C1627162216AA
:104AC0001D16181613160E1609160416FF15FA15DC
:024AD000F515DA
:104AD20030548000000000000000FC8484FC0000D0
:104AE20000003030FC000000000048FC48FC480098
:104AF2000000FC101020C0000000FC20202020003C
:104B020000003F0005010100E10000000008010073
:104B1200000025643A25643A2564202020202025BF
:104B22003032643A2530326400546F6D20616E6415
:104B3200204A65727279004861727279204E6577F7
:104B4200746F6E006E31303133333831300047616B
:104B52006D65204F76657200526573746172743FA1
:104B62000028726967687420627574746F6E290018
:104B7200547275650046616C73650054696D6573A6
:104B820074616D703A20253032643A253032640DFA
:104B92000A0043757272656E74204C6576656C3AD4
:104BA2002025640D0A004A657272792773204C69C8
:104BB2007665733A2025640D0A0053636F72653A75
:104BC2002025640D0A004E756D626572206F6620A5
:104BD20046697265776F726B733A2025640D0A001D
:104BE2004E756D626572206F6620436865657365F8
:104BF2003A2025640D0A00416D6F756E74206F6650
:104C02002063686565736520636F6E73756D656497
:104C12003A2025640D0A004E756D626572206F663A
:104C2200204D6F75736574726170733A2025640D3F
:104C32000A005061757365643A2025730D0A0A00F3
:00000001FF
